:0600000002038B020391D4
:01000B0032C2
:03001300020602E0
:0300650002001680
:030016000200687D
:20006800753000753100753200753300753400753500753600753700753800753900753A2A
:2000880000753B00757A00757B00757C00757D01757E01757F00D288D28A75A88512026031
:2000A80012021AD200D201D202120226900A3975F080120295758240120278900A4275F0F2
:2000C8008012029512033F057C743CB57C05057B757C00743CB57B05057A757B007418B52E
:2000E8007A05757A00057E7402B57D0DE57E24E35039057D757E0180327404B57D028013F8
:200108007406B57D02800C7409B57D028005740BB57D0DE57E24E15012057D757E01800BDE
:20012800E57E24E05005057D757E01740DB57D05057F757D017464B57F03757F00753C346E
:20014800753D00753E40857C8212035A753C32753D00753E40857B8212035A753C30753DF4
:2001680000753E40857A8212035A753C38753D00753E40857E8212035A753C36753D007504
:200188003E40857D8212035A753C3A753D00753E40857F8212035A758200120278853082A7
:2001A80012028885318212028875823A12028885328212028885338212028875823A12020A
:2001C8008885348212028885358212028875824012027885368212028885378212028875F5
:2001E800822D12028885388212028885398212028875822D120288853A82120288853B8216
:200208001202880200CCC2A1759002D2A0C2A00202CBC2A1759006D2A0C2A00202C2C297FE
:20022800C296C295C294D293A2009292A2019291A2029290D2A0C2A00202C2C2A1C297C2E2
:2002480096C295D294A2039293A2049292C291C290D2A0C2A00202C2C2A1759038D2A0C29C
:20026800A00202C2C2A1759001D2A0C2A00202CBAF82C2A174804FF590D2A0C2A00202C20E
:20028800AF82D2A18F90D2A0C2A00202C2AD82AE83AFF08D828E838FF0120A1DFCA3AD8254
:2002A800AE83ECFB60138B82C007C006C005120288D005D006D00780DA227F32EF14FEFF01
:2002C80070FA227FFF8F061EEEFF70F922753C33753D32753E31753F367540357541347502
:2002E800423975433875443775452375463075472A7F007EF77D007C007580FFEE528074D8
:20030800705580FBBB70028019EBF4FA74705AC4035407FBED75F003A4243CFA2BF9870796
:20032800800FEEC313FE4306F00C8C05BC040040C8EF60BF8F90227589017F14EF6012750F
:200348008AAF758C3CD28C308DFDC28CC28D1F80EB22AF82AC3CAD3DAE3E75F00AEF8424C9
:2003680030FB8C828D838EF0120A020CBC00010D75F00AEF84AFF074302F8C828D838EF0CA
:20038800020A0275815F020068C021C0E0C0F0C082C083C007C006C005C004C003C002C077
:2003A80001C000C0D075D0087F00758200C00F75D00012027875D008D00F30B2030205E584
:2003C800C00F75D0001202D575D008D00F742AB590221FEF30E7027F07BF02027F01BF0533
:2003E800027F048F82C00F75D00012027875D008D00F80C67423B5902A0FC374878FF06398
:20040800F08095F050027F00BF02027F03BF05027F068F82C00F75D00012027875D008D0B0
:200428000F8097BF00028020BF01028061BF03030204E2BF0403020528BF0603020565BFF5
:2004480007030205AB0203C2E59024CD50030203C2E59024D075F00AA4F57A859082C00F40
:2004680075D00012028875D008D00F0F758230C00F75D00012028875D008D00F8F82C00F75
:2004880075D00012027875D008D00F0203C2E59024CC500974EC257A50030203C275F00A4A
:2004A800E57A84F57AE57A75F00AA4F57AE59024D0AD7A2DF57A859082C00F75D000120216
:2004C8008875D008D00F0F0F8F82C00F75D00012027875D008D00F0203C2E59024CA5003E8
:2004E8000203C2E59024D075F00AA4F57B859082C00F75D00012028875D008D00F0F7582C8
:2005080030C00F75D00012028875D008D00F8F82C00F75D00012027875D008D00F0203C223
:2005280075F00AE57B84F57BE57B75F00AA4F57BE59024D0AD7B2DF57B859082C00F75D034
:200548000012028875D008D00F0F0F8F82C00F75D00012027875D008D00F0203C2E5902470
:20056800CA50030203C2E59024D075F00AA4F57C859082C00F75D00012028875D008D00F2F
:200588000F758230C00F75D00012028875D008D00F8F82C00F75D00012027875D008D00F64
:2005A8000203C275F00AE57C84F57CE57C75F00AA4F57CE59024D0AD7C2DF57C8590827586
:2005C800D00012028875D0087F00758200C00F75D00012027875D008D00F0203C2D0D0D0E1
:2005E80000D001D002D003D004D005D006D007D083D082D0F0D0E0D02132C021C0E0C0F0BE
:20060800C082C083C007C006C005C004C003C002C001C000C0D075D0087F40758240C00F8F
:2006280075D00012027875D008D00F30B3030209E5C00F75D0001202D575D008D00F742A18
:20064800B590261FC3EF648094C050027F47BF42027F41BF45027F448F82C00F75D0001243
:20066800027875D008D00F80C27423B5902A0FC374C78FF063F08095F050027F40BF42028C
:200688007F43BF45027F468F82C00F75D00012027875D008D00F8093BF40028021BF410330
:2006A800020795BF430302081ABF44030208A9BF460302096EBF47030209AB020633E590C2
:2006C80024CE50030206337430B5905D757D01859082C00F75D00012028875D008D00F0FD7
:2006E800758231C00F75D00012028875D00875824375D00012027875D00875823075D00009
:2007080012028875D00875823175D00012028875D008D00F757E018F82C00F75D000120286
:200728007875D008D00F020633E59024D075F00AA4F57D859082C00F75D00012028875D058
:2007480008D00F0F758230C00F75D00012028875D00875824375D00012027875D008758228
:200768003075D00012028875D00875823175D00012028875D008D00F757E018F82C00F7595
:20078800D00012027875D008D00F02063374F6257D5009E59024CD50030206337430B5904C
:2007A8000974F6257D400302063375F00AE57D84F57DE57D75F00AA4F57DE59024D0AD7D5D
:2007C8002DF57D859082C00F75D00012028875D008D00F0F0F758243C00F75D00012027807
:2007E80075D00875823075D00012028875D00875823175D00012028875D008D00F757E0126
:200808008F82C00F75D00012027875D008D00F020633E59024CC5003020633E59024CD500F
:20082800087402B57D030206337430B59036757E01859082C00F75D00012028875D008D04B
:200848000F0F758231C00F75D00012028875D008D00F8F82C00F75D00012027875D008D0A0
:200868000F020633E59024D075F00AA4F57E859082C00F75D00012028875D008D00F0F7540
:200888008230C00F75D00012028875D008D00F8F82C00F75D00012027875D008D00F0206DD
:2008A8003374E2257E50387401B57D0280287403B57D0280217405B57D02801A7407B57DEB
:2008C8000280137408B57D02800C740AB57D028005740CB57D09E59024CE500302063374E4
:2008E8001EB57E237404B57D0280137406B57D02800C7409B57D028005740BB57D09E5909E
:2009080024CF500302063374EC257E500E7402B57D09E59024C750030206337430B590095C
:2009280074F6257E400302063375F00AE57E84F57EE57E75F00AA4F57EE59024D0AD7E2DB1
:20094800F57E859082C00F75D00012028875D008D00F0F0F8F82C00F75D00012027875D095
:2009680008D00F020633E59024D075F00AA4F57F859082C00F75D00012028875D008D00FEA
:200988000F758230C00F75D00012028875D008D00F8F82C00F75D00012027875D008D00F60
:2009A80002063375F00AE57F84F57FE57F75F00AA4F57FE59024D0AD7F2DF57F85908275FC
:2009C800D00012028875D0087F40758240C00F75D00012027875D008D00F020633D0D0D0E9
:1A09E80000D001D002D003D004D005D006D007D083D082D0F0D0E0D02132F1
:120A390030303A30303A30300030312D30312D3030009B
:06003B00E478FFF6D8FD99
:200019007900E94400601B7A00900A4B780175A000E493F2A308B8000205A0D9F4DAF27538
:02003900A0FF26
:1B0A020020F71130F6138883A88220F509F6A8837583002280FEF280F5F022F3
:200041007800E84400600A790175A000E4F309D8FC7800E84400600C7900900001E4F0A3BD
:04006100D8FCD9FAF4
:1C0A1D0020F71430F6148883A88220F507E6A88375830022E280F7E49322E022E8
:00000001FF
